:020000040800F2
:10000000C00F0020B9010008A5240008DD1B00086E
:10001000A1240008FD020008B92400080000000027
:10002000000000000000000000000000AD240008F7
:100030001903000800000000A9240008B1240008EA
:10004000D3010008D3010008D3010008D301000840
:10005000D3010008D3010008D3010008D301000830
:10006000D3010008D3010008D3010008D301000820
:10007000D3010008D3010008D3010008D301000810
:10008000010300080D030008D3010008D301000894
:10009000D3010008D3010008D3010008D3010008F0
:1000A000D3010008D3010008D3010008D3010008E0
:1000B000D3010008D3010008D3010008D3010008D0
:1000C000D3010008D3010008D3010008D3010008C0
:1000D000D3010008D3010008D3010008D3010008B0
:1000E000D3010008D3010008D301000800F002F892
:1000F00000F052F814A696E8000CB244B344DA4576
:1001000001D100F049F8BAE80F000FA696E83000D8
:10011000A5EB040504EB0607AAEB0704A7F101070A
:100120004FEA15154FEA3414A4F10104AC4201D38F
:1001300000F032F813F0010F18BFFB1A43F001036F
:1001400000F001F8DBE718472434000044340000D5
:10015000103A24BF78C878C1FAD8520724BF30C8F3
:1001600030C144BF04680C60704700007047000055
:100170000023002400250026103A28BF78C1FBD8B0
:10018000520728BF30C148BF0B6070471FB500F051
:1001900065F81FBD10B510BD00F076F81146FFF7E9
:1001A000F5FF02F041FF00F094F803B4FFF7F2FF0F
:1001B00003BC00F09DF8000009488047094800474B
:1001C000FEE7FEE7FEE7FEE7FEE7FEE7FEE7FEE707
:1001D000FEE7FEE704480549054A064B7047000064
:1001E000B5240008ED000008C0090020C00F002061
:1001F000C00B0020C00B002002F0FF0343EA0322E3
:1002000042EA024200F002B84FF0000200B5134685
:1002100094469646203922BFA0E80C50A0E80C5026
:10022000B1F12001BFF4F7AF090728BFA0E80C50D7
:1002300048BF0CC05DF804EB890028BF40F8042BD0
:1002400008BF704748BF20F8022B11F0804F18BF3D
:1002500000F8012B704770477047704708487CB51D
:100260007844009007487844009C0546019004E0DB
:100270002046016808448047241DAC42F8D17CBD6B
:100280002833000026330000754600F02BF8AE46F8
:1002900005006946534620F00700854618B020B592
:1002A000FFF798FFBDE820404FF000064FF0000731
:1002B0004FF000084FF0000BAC46ACE8C009ACE8CA
:1002C000C009ACE8C009ACE8C00921F007018D46BF
:1002D000704710B50446AFF300802046BDE81040DB
:1002E000FFF763BF004870473800002070470000E8
:1002F00001491820ABBEFEE726000200FEE7000021
:1003000040F62010C2F2000000F00CB840F6DC000D
:10031000C2F2000000F006B870470000EFF3108052
:1003200072B6000010B5D0E90FCE0168DCF80030DD
:100330000A6823FA0EF35C072AD512F0040427D0CA
:100340000A68920603D40A6822F004020A602F2287
:10035000C4F20202914240F20402C4F202025BDDE6
:100360003023C4F20203994272D04423C4F2020340
:10037000994273D05823C4F20203994240F07A8024
:100380004FF480231360C16A002940F098806FE029
:100390009C0727D512F0020424D00A68920606D4DE
:1003A0000A6822F00A020A60012280F821202F2226
:1003B000C4F20202914240F20402C4F202023BDDA6
:1003C0003023C4F20203994260D04423C4F20203F2
:1003D00099425FD05823C4F20203994260D14FF48E
:1003E000003365E01B0743D512F0080208BF10BDBB
:1003F0000A6822F00E020A60012101FA0EF2CCF81E
:100400000420816380F82110016B0022002980F80C
:10041000202054D12CE000BF0823C4F202039942EB
:1004200022D01C23C4F20203994223D1402313603B
:10043000C16A002943D11BE00823C4F20203994298
:100440002CD01C23C4F20203994229D120232FE08F
:100450004FF480631360C16A89BB09E04FF48043A5
:100460001360C16A59BB03E004231360C16A31BB46
:1004700010BD00BF02F168044FF08063A14208BFC5
:100480004FF480031360C16AC9B9F1E74FF40073F8
:100490000EE000BF4FF400530AE000BF022307E064
:1004A00002F168044FF00073A14208BF4FF400133B
:1004B0001360816A0022002980F82020D8D0BDE88E
:1004C00010400847014600284FF0010008BF704760
:1004D0002DE9F043D1F800C04FF6F873CBF6FD7369
:1004E0004CF6CD426344CCF6CC42A3FB02236FF022
:1004F000030202EA93020023C4F2020301F10C0892
:10050000C1E90F320222D1E9019E98E8F00181F899
:100510002120DCF8002043F6F0739A4342EA0902F6
:1005200042EA0E0222432A4332433A4342EA080295
:10053000CCF8002000228A6381F8210081F8202075
:100540000020BDE8F043704790F820C0BCF1010FD7
:1005500004BF02207047F0B54FF0010E80F820E094
:1005600090F821C0BCF1010F26D14FF0020C80F8A9
:1005700021C04FF0000CC0F838C0D0E900C4C56AF3
:10058000C66BDCF80070102C27F00107CCF8007067
:10059000006C0EFA00F070600846CCF8043004BF1E
:1005A00010460A46CCF80800CCF80C20DCF8000015
:1005B00045B140F00E000DE0002180F8201002202F
:1005C000F0BD00BF20F00400CCF80000DCF8000013
:1005D00040F00A00CCF80000DCF8000040F0010018
:1005E000CCF800000020F0BDB0B5044600F018F9CA
:1005F000054640F20000C2F200000078611C18BFFE
:10060000044400BF00F00CF9401BA042FAD3B0BD77
:100610002DE9F04F82B00E68002E00F0FD8041F20F
:100620000042C4F20102042340F2004E904208BF8F
:1006300003234FF6FF7CC4F2010E00930024012334
:10064000C1F2100C4FF0000A4FF000094BE000BF60
:1006500041F20002C4F20102009F904208BF02274B
:1006600004F00C030F229A402BEA020207FA03F36C
:100670004FEA9A051A4346F825204E6840F20C4589
:10068000F202DEF8082054BF22EA080242EA080219
:10069000C4F20105CEF808202A68B30254BF22EA4A
:1006A000080242EA08022A60B303DEF8042054BFBD
:1006B00022EA080242EA0802F303CEF80420DEF838
:1006C00000204FF0010354BF22EA080242EA080268
:1006D000CEF800200E680AF1010A36FA0AF204F197
:1006E000040400F0998003FA0AFB16EA0B08F1D023
:1006F0004E68664512DC122E56D8DFE806F0350B40
:100700004D495555555555555555555555555545BD
:10071000510000BFD1F80C9046E000BF4FF6FF72C9
:10072000C1F2210296420FDC0022C1F21102964270
:100730001AD00022C1F21202964215D00022C1F254
:100740002102964210D02FE00022C1F222029642EE
:100750000AD00022C1F23102964205D00022C1F235
:100760003202964220D100BF8A684AB1012A14BFE2
:10077000C0F814B0C0F810B04FF0080914E000BF82
:100780004FF0040910E000BFCA6802F104090BE051
:100790004FF0000908E000BFCA6802F1080903E051
:1007A000CA6802F10C0900BF02462646B8F5807FF0
:1007B00024BF0432203E17680F25B54027EA0505FF
:1007C00009FA06F635431560CA79D2067FF582AF7D
:1007D00041F21803C4F202031A68AEF57E7642F0C5
:1007E00001021A601A6802F001020192019A2AF0CD
:1007F000030256F802B040F60002C4F20102904231
:1008000008D040F60042C4F2010290427FF420AFCB
:10081000012725E7002723E702B0BDE8F08F00009D
:1008200040F6B810C2F20000006870477047000040
:10083000002804BF01207047F0B581B0044690F84D
:100840003D0028B9002084F83C00204600F08CFDD3
:10085000242084F83D002068016821F00101016036
:10086000016841F400410160016821F40041016028
:1008700000F08AFF636848F2A16CC0F2010C40F6F8
:100880000011C0F23D0163453CBF48F28041C0F217
:100890001E01884202D2012001B0F0BD4DF68361F5
:1008A000C4F21B31A0FB01122168970CD1F804E0BF
:1008B0004FF496762EF03F0545EA92454D6077431A
:1008C00048F638160D6AC0F24106A7FB067625F0F9
:1008D0003F07634538BF960C721C3A430A62CA69E7
:1008E00048F2A0664CF6FF77C0F20106B34222EA56
:1008F00007020BD801385B00B0FBF3F001306FF357
:100900001F30042898BF04201BE000BFA7680138EF
:1009100057B119277B43B0FBF3F001306FF31F3061
:1009200070B100F5804007E003EB4303B0FBF3F048
:1009300001306FF31F3018B100F5004001E000BF37
:1009400001201043C8610868D4E9072320F0C000E3
:10095000104318430860886848F2FF3204F10C071E
:1009600090438CCF18431043A6698860C86820F074
:10097000FF0038433043C860086840F00100086059
:1009800000202021206484F83D10206384F83E007C
:1009900001B0F0BD704700002DE9F04383B01E4662
:1009A000174689460446FFF73BFF94F83D1020297F
:1009B00024D10546206800BF816989071AD5FFF751
:1009C0002FFF411B20681A29F6D381698907F3D5C7
:1009D00000202021206384F83D1084F83E00216C23
:1009E00041F02001216484F83C00022003B0BDE8FE
:1009F000F08300BF94F83C10012903D1022003B01A
:100A0000BDE8F083012184F83C100168C90703D1D7
:100A1000016841F001010160016840F2020821F41F
:100A200000610160212184F83D10102184F83E10FE
:100A30000021216467626685618DC0F2010821850D
:100A4000A8F10211E162E16A0A9E11F5803F18BF28
:100A500001291DD1016841F48071016020464FF0E9
:100A6000011100223346009501F0BCFA50B1206814
:100A70000068C00544BF4FF400702064012003B03B
:100A8000BDE8F0832069B0F5804F07D1FE2015E066
:100A90000829DFD0216B1229DCD0DFE7062000EA2D
:100AA000D9102168F030086108F10601204632466D
:100AB0002B4601F07DFB0028E0D1FF20216800EAF1
:100AC000090008612046414632462B4601F070FB82
:100AD0000028D3D1002002902068416902918069EA
:100AE0000290029806E000BF204631462A4601F0F7
:100AF0001BFA18BB208D68B3204631462A4601F008
:100B00000BFCD8B9606A2168024612F8013B0B6100
:100B10006262628D013A6285228D531E23854F6980
:100B20007F07E1D51B04DFD0437802300B616062A0
:100B3000608D01386085901E2085D5E7206C0428E3
:100B40009CD12068016841F400710160012003B06C
:100B5000BDE8F0832068016841F400710160202045
:100B600084F83D00002084F83E0084F83C0003B087
:100B7000BDE8F083B0B582B00024019490F83D4008
:100B8000202C40F0A28040F22804C2F20004246825
:100B90004FEAD40C4BF28954C1F2F844ACFB044C3C
:100BA0004FEA1C2C19240CFB04F40194019C013C19
:100BB0000194019C002C7DD0D0F800C0DCF81840D6
:100BC000A40723D5019C013C0194019C002C71D009
:100BD000D0F800C0DCF81840A40717D5019C013CF0
:100BE0000194019C002C65D0D0F800C0DCF81840BE
:100BF000A4070BD5019C013C0194019C002C59D009
:100C0000D0F800C0DCF81840A407CFD490F83C40DE
:100C1000012C5AD0012480F83C40DCF80040E40765
:100C200005D1DCF8004044F00104CCF80040DCF8C9
:100C3000004024F40064CCF80040212480F83D40BA
:100C4000102480F83E400024046442624385438DB2
:100C50000024CFF6FF740385C4624164C3B3416BC3
:100C600000294DD0044641F61D40C0F6000041F673
:100C7000E13E002501F128070CF1100CC0F6000E32
:100C800087E821404D63084611466246FFF75CFC49
:100C9000002845D0202084F83D00002084F83E0044
:100CA000216C41F01001216484F83C00012002B065
:100CB000B0BD00BF00212022016380F83D2080F8F4
:100CC0003E10016C41F020010164022002B0B0BD71
:100CD000DCF8001041F48061CCF80010DCF8001062
:100CE00041F48071CCF80010002180F83C10DCF851
:100CF0000410002041F4E061CCF8041002B0B0BD53
:100D0000202180F83D10002180F83E10026C42F056
:100D10008002026480F83C10012002B0B0BD00BF28
:100D20002168002084F83C004A6842F440724A601E
:100D30004A6842F400624A600A6842F480620A60CB
:100D40000A6842F480720A6002B0B0BD80B581B01A
:100D50004FF0000CCDF800C090F83DC0BCF1200F62
:100D600062D140F2280CC2F2000CDCF800C04BF259
:100D7000895E4FEADC0CC1F2F84EACFB0ECE4FEAB6
:100D80001E2C4FF0190E0CFB0EFCCDF800C0DDF848
:100D900000C0ACF1010CCDF800C0DDF800C0BCF122
:100DA000000F45D0D0F800C0DCF818E05FEA8E7E76
:100DB00035D5DDF800C0ACF1010CCDF800C0DDF890
:100DC00000C0BCF1000F33D0D0F800C0DCF818E050
:100DD0005FEA8E7E23D5DDF800C0ACF1010CCDF8C2
:100DE00000C0DDF800C0BCF1000F21D0D0F800C079
:100DF000DCF818E05FEA8E7E11D5DDF800C0ACF1BA
:100E0000010CCDF800C0DDF800C0BCF1000F0FD020
:100E1000D0F800C0DCF818E05FEA8E7EB7D490F816
:100E20003CE0BEF1010F0FD1022001B080BD00BF38
:100E300000222021026380F83D1080F83E2000F15E
:100E4000400C022031E000BFDCF800E05FEACE7E1B
:100E500005D1DCF800E04EF0010ECCF800E0DCF843
:100E600000E02EF4006ECCF800E04FF0210E80F888
:100E70003DE04FF0100E80F83EE04FF0000EC0F85D
:100E800040E042624385428D02850022CFF6FF7228
:100E9000C262416480F83CE0DCF80410002041F4B8
:100EA000E061CCF804104FF48071DCF800201143AD
:100EB000CCF8001001B080BD704700002DE9F04F64
:100EC00085B004460020994616460F460490FFF769
:100ED000A7FC94F83D10202927D10546206800BFC3
:100EE000816989071CD5FFF79BFC411B20681A29E3
:100EF000F6D381698907F3D500202021206384F887
:100F00003D1084F83E00206C04F13C0A40F02000C3
:100F10002064022000218AF8001005B0BDE8F08F9F
:100F2000A2461AF83C1F012904D1022005B0BDE8F1
:100F3000F08F00BF01228AF800200368DDE90F1856
:100F40000E9ADB0703D1036843F0010303600368D3
:100F500023F400630360222084F83D00402084F8DD
:100F60003E000020206462626185608D39462085E4
:100F70000020CFF6FF70E062204632464B46CDE9B6
:100F8000008500F0E3FE18B1012005B0BDE8F08F48
:100F9000208D022826D001280ED0002838D100202C
:100FA0000390206841690391816903910399016865
:100FB00041F40071016037E02068016821F480612C
:100FC0000160EFF3108072B6002003902068416941
:100FD0000391816903910399016841F400710160F3
:100FE00062B621E02068016841F400610160EFF31E
:100FF000108072B6002003902068416903918169D6
:1010000003910399016821F48061016062B60BE0ED
:101010002068016841F48061016000210391416909
:101020000391806903900398208D002800F0CE8002
:10103000042740F228094BF2895BC0F20107C2F293
:101040000009C1F2F84B23260EE000BF10690870BA
:10105000606A218D01306062481E2085618D0139F2
:101060006185010400F0B28080B203280CD8022808
:101070002CD001284AD1204641462A4601F004F9E5
:10108000002800F09F807FE7204641462A4601F075
:10109000FBF800287FF478AF2068616A0069087067
:1010A000606A2268411C208D616201382085638D51
:1010B000013B638553695B07D3D580B20328C5D153
:1010C000106820F480601060C0E700BF20463946F9
:1010D00000224346009500F085FF00287FF454AFBE
:1010E000EFF3108072B62068616A026842F4007201
:1010F000026000690870606A218D01306062481EDC
:101100002085608D0138608562B65BE020463946F7
:1011100000224346009500F065FF00287FF434AFBD
:101120002068016821F480610160EFF3108072B6DD
:101130002068616A00690870606A218D0130013998
:1011400060622185618D01396185D9F80010C90877
:10115000A1FB0B12110A7143049104990139049106
:10116000049900293ED021684A6952071AD404998B
:10117000013904910499A9B321684A69520711D42D
:10118000049901390491049961B321684A695207AD
:1011900008D4049901390491049919B321684A6962
:1011A0005207DAD50A6842F400720A6009690170D0
:1011B000606A218D01306062481E2085608D013893
:1011C000608562B62068616A006940E7202084F883
:1011D0003D00002084F83E0000218AF8001005B090
:1011E000BDE8F08F00202021206384F83D1084F8B2
:1011F0003E00206C40F02000206462B601200021F7
:101200008AF8001005B0BDE8F08F00002DE9F0432A
:1012100083B0994616460F460446FFF701FB94F843
:101220003D10202924D10546206800BF8169890727
:101230001AD5FFF7F5FA411B20681A29F6D3816900
:101240008907F3D500202021206384F83D1084F81D
:101250003E00216C41F02001216484F83C00022012
:1012600003B0BDE8F08300BF94F83C10012903D11E
:10127000022003B0BDE8F083012284F83C2003681B
:10128000DDE90B180A9ADB0703D1036843F0010379
:101290000360036823F400630360212084F83D00A9
:1012A000402084F83E000020206462626185608DE9
:1012B000394620850020CFF6FF70E0622046324696
:1012C0004B46CDE9008500F0CBFD18B1012003B0FD
:1012D000BDE8F083208D98B9204641462A4600F0AB
:1012E00023FE88B3206C0428F0D12068016841F403
:1012F00000710160012003B0BDE8F0830004EBD071
:10130000204641462A4601F007F80028EAD1616AE2
:101310002268084610F8013B1361238D6062581E55
:101320002085678D013F678557697F07E6D50704EC
:10133000E4D048781061881C6062981E2085618D19
:1013400001396185DAE700BF2068016841F4007166
:101350000160202084F83D00002084F83E0084F8DD
:101360003C0003B0BDE8F0832DE9F04186B00446AF
:10137000006845F20041C4F2000100278842059749
:10138000CDE90377029703D006B0BDE8F08100BF36
:1013900041F21805C4F20205286840F26C0840F0DA
:1013A00008002860286802A900F008000190019850
:1013B0004FF440700290122003900320059040F6F5
:1013C0000040C4F20100C4F20208FFF721F9042032
:1013D000C4F201000168802641F0E06141F00201A1
:1013E0000160686840F400106860686840F6DC05D9
:1013F00000F400100190019808F11400C2F20005F9
:10140000C5E900072846C5E90276C5E90477C5E9BC
:101410000677FFF757F8002818BFFEF77FFFA56390
:101420006C6240F62015C2F2000510200021C5E9CB
:1014300000802846C5E90216C5E90411C5E9061170
:10144000FFF740F8002818BFFEF768FF65636C627D
:1014500006B0BDE8F0810000704700007047000052
:1014600040F2000040F6B811C2F20000C2F20001E2
:1014700000780A68104408607047000080B542F2A6
:101480000000C4F20200016841F010010160032075
:1014900000F08CF80F2000F005F800F027F800208D
:1014A00080BD000070B540F20006C2F2000640F2B6
:1014B00028013278C2F200014FF47A730968B3FB55
:1014C000F2F20446B1FBF2F1084600F071FB0F2C7A
:1014D0004FF0010508D838B94FF0FF3021460022FF
:1014E000002500F037F87460284670BD82B041F2E4
:1014F0001800C4F202000168022241F001010160FB
:10150000016801F0010101910199416841F08051A8
:101510004160406800F08050009000980420C4F2C0
:101520000100016862F31A61016002B070470000B7
:10153000002848BF704700F01F01012202FA01F1A4
:101540001C2202EAD0004EF20012CEF200028150BC
:101550007047000010B54EF60C5CCEF2000CDCF8C3
:101560000030C3F3022E8EF00704042C28BF04249D
:10157000BEF103034FF0FF3E0EFA04F438BF002320
:10158000A14399400EFA03F39A43114300F00F026E
:1015900000F160430901043A03F564436244002802
:1015A00048BF02F10C03197010BD00004EF60C513B
:1015B000CEF200010A684FF6FF031A4060F30A22D8
:1015C00042F0806040F0FD7008607047002804BF62
:1015D000012070472DE9F04381B042F20008C4F2C7
:1015E00002080446D8F800000D4600F007008842C3
:1015F0000CD2D8F8000020F007002843C8F80000FB
:10160000D8F8000000F00700A8426CD1206841F231
:1016100004098107C4F2020917D5410705D5D9F895
:10162000001041F4E061C9F80010010705D5D9F8B0
:10163000001041F46051C9F80010D9F80010A268F8
:1016400021F0F0011143C9F80010C00742D1D8F8C9
:10165000000000F00700A8420CD9D8F8000020F0E4
:1016600007002843C8F80000D8F8000000F0070081
:10167000A84238D12068410707D5D9F80010E268A0
:1016800021F4E0611143C9F80010000708D5D9F82A
:101690000000216920F4605040EAC100C9F8000050
:1016A000D9F8002002F00C00082841F20020C0F216
:1016B0007A004DD143F25A53C2F38341C0F600037E
:1016C000595CD20338D440F60010C0F23D004843C4
:1016D0003EE000BF606859F8041C022808D00128C9
:1016E00026D1890306D4012001B0BDE8F08300BFF4
:1016F0008901F8D5D9F8001021F003010843C9F891
:101700000000FFF78DF8064641F28837D9F800004F
:10171000616800F00C00B0EB810F98D0FFF780F803
:10172000801BB842F2D9032001B0BDE8F08300BFAE
:101730008907D8D5DEE700BFD9F8002043F2E403DB
:10174000C2F34042C0F600039A5C4843B0FBF2F09B
:10175000D9F8001043F2CC02C1F30311C0F6000225
:10176000515C40F2280220FA01F140F20400C2F27A
:1017700000000068C2F200021160FFF793FE002033
:1017800001B0BDE8F083000040F2280041F20401FE
:10179000C2F20000C4F202010068096843F2DC02F0
:1017A000C1F30221C0F60002515CC840704700003E
:1017B000002804BF012070472DE9F04182B00446A3
:1017C000007841F20006C007C4F202060CD070682F
:1017D00000F00C00042840F081803068800303D5BD
:1017E0006068002800F04681207880071BD570686B
:1017F00010F00C0F09D0706800F00C00082840F0C1
:1018000087807068C00300F183803068800703D54B
:101810002069012840F02E813068616920F0F800CD
:1018200040EAC10030602078000713D420784007D8
:101830002CD4E569002D00F01881706800F00C00D0
:10184000082840F0A780012D40F00481012002B05B
:10185000BDE8F081A069002800F084800020C4F277
:1018600042200121C0F88014FEF7DAFF054600BFD0
:10187000706A800700F1B280FEF7D2FF401B022899
:10188000F6D9032002B0BDE8F08100BFF0695FEA3D
:10189000C00808D4F06940F08050F061F06900F0B1
:1018A00080500090009847F20007C4F200073868A3
:1018B000C00549D4386840F480703860FEF7B0FF46
:1018C000054600BF3868C0053ED4FEF7A9FF401B9F
:1018D0006428F7D9032002B0BDE8F081706800F0F9
:1018E0000C00082803D17068C0033FF576AF61682B
:1018F0003068002900F00C81B1F5A02F00F00081C4
:10190000B1F5803F40F01A8140F480301CE100BF07
:101910002069002840F20000C4F2422000F08880D4
:1019200001210160FEF77CFF054600BF306880079B
:101930003FF572AFFEF774FF401B0228F6D9032073
:1019400002B0BDE8F08100BFE168306A002900F014
:101950009D80052900F09280012940F0AF8040F081
:101960000100B1E00020C4F242200021C0F8801440
:10197000FEF756FF054600BF706A80077FF556AF39
:10198000FEF74EFF401B0228F6D9032002B0BDE847
:10199000F08100BF0027C4F2422700203866FEF71E
:1019A0003FFF022D05460DD13068800140F1DE80F9
:1019B000FEF736FF401B02284FF00300F4D902B0B7
:1019C000BDE8F081306880014FD5FEF729FF401B4C
:1019D00002284FF00300F5D9F1E700BF40F22800DC
:1019E000C2F20000006844F6D351C1F26201A0FBCC
:1019F0000101480A019000BF00BF0198411E002864
:101A000001913FF413AF00BF0198411E00280191DE
:101A10003FF40CAF00BF0198411E002801913FF434
:101A200005AF00BF0198411E00280191E4D1FDE6F9
:101A300000210160FEF7F4FE054600BF3068800714
:101A40007FF5F1AEFEF7ECFE401B02284FF00300DD
:101A5000F4D9B4E77068216A00F480328A4209D16F
:101A6000616A00F47010884204D1002002B0BDE821
:101A7000F08100BF012002B0BDE8F08140F0040019
:101A80003062306A40F001001EE000BF20F001002B
:101A90003062306A20F004003062FEF7C1FE054675
:101AA00041F28837306A800720D5FEF7B9FE401B27
:101AB000B8424FF00300F5D981E700BF20F00100E4
:101AC0003062306A20F004003062FEF7A9FE05465D
:101AD00041F28837306A800708D4FEF7A1FE401B28
:101AE000B842F7D9032002B0BDE8F081B8F1000F89
:101AF0003FF59FAEF06920F08050F06199E600BF9D
:101B000040F480203060306840F480301CE000BF3A
:101B100020F480303060306820F480203060FEF7A0
:101B20007FFE0546306880037FF55EAEFEF778FEE7
:101B3000401B64284FF00300F4D940E720F48030C4
:101B40003060306820F480203060FEF769FE054682
:101B5000306880033FF548AEFEF762FE401B642804
:101B6000F6D9032002B0BDE8F08100BF206AB0F5CD
:101B7000803F05D17168A26821F400311143716082
:101B80007168626A21F47411114308437060012086
:101B90003866FEF745FE0446306880013FF565AFC4
:101BA000FEF73EFE001B02284FF00300F4D906E7C3
:101BB000411E0020B0EB116F1CBF012070474EF298
:101BC0001002CEF2000251604EF62351CEF2000117
:101BD000F0230B700721906011607047FEE7000052
:101BE000406A416B00291CBF00228A62816B002978
:101BF0001CBF00228A6201680A6822F480620A60BF
:101C000000212022418580F83D2080F83E10016CA3
:101C100041F010010164FEF709BE000010B5446AEE
:101C200094F83D2094F83EE0D4F82CC02168606B15
:101C30004B68002823F440734B601CBF0023836271
:101C4000A06B00281CBF0023836202F02100212822
:101C500020D002F02200222808BFBEF1200F19D0A8
:101C600094F83E00002808BF10BD608D012803D104
:101C7000086820F4806008604868BCF1070F20F411
:101C80004070486028DCBCF12A4F2BD01CF5803F07
:101C900028D02BE048682A2A20F4006048604FF0E2
:101CA000000060850AD0292A10D121202063282035
:101CB00084F83D002046FFF7D1FB07E02220206397
:101CC000282084F83D002046FFF7C6FB20684168C5
:101CD00041F44071416010BDBCF1200F02D0BCF155
:101CE000080F03D1086840F400700860486820F4C9
:101CF00080504860486820F4006048600021618599
:101D0000206C28B12046BDE81040FEF78FBD00BF13
:101D1000202084F83D0094F83E0084F83E104028CE
:101D200006D120462163BDE81040FFF7C5B800BFCB
:101D3000BCF1080018BF1220BCF1200118BF0146F9
:101D400020462163BDE81040FEF724BE2DE9F04790
:101D500082B0044600689A460B9D0A9E036891462D
:101D600043F48062026002680F4642F480710160B1
:101D700020464FF0011100223346009500F032F961
:101D800050B120680068C00544BF4FF40070206463
:101D9000032002B0BDE8F08740F202082068C0F2DC
:101DA000010807F0FE0707612046414632462B46F0
:101DB00000F0FEF920B1012002B0BDE8F08700BFBD
:101DC0000020019020682A464169019180693146CE
:101DD00001900198204600F09FFAB0B92068BAF14E
:101DE000010F09D04FEA19210161204631462A46E8
:101DF00000F092FA48B920685FFA89F10161204643
:101E000031462A4600F088FA60B1206C0428D2D10D
:101E10002068016841F400710160012002B0BDE852
:101E2000F08700BF206800220168334641F48071CA
:101E3000016020464FF00111009500F0D3F8002812
:101E40009FD147F0010C27682046414632462B4679
:101E5000C7F810C002B0BDE8F04700F0A9B9000013
:101E60002DE9F04383B0044600680F4601680A9DDF
:101E70000B9E41F4807199469046016020464FF0D8
:101E8000011100222B46009600F0ACF850B12068FA
:101E90000068C00544BF4FF400702064032003B005
:101EA000BDE8F083206807F0FE0101610221C0F265
:101EB000010120462A46334600F07AF920B101207C
:101EC00003B0BDE8F08300BF0020029020683246D6
:101ED000416902918069294602900298204600F0EB
:101EE0001BFA58B1206C0428E9D12068016841F43C
:101EF00000710160012003B0BDE8F0832068B9F1F2
:101F0000010F0AD04FEA18210161204629463246C6
:101F100000F002FA0028E5D120685FFA88F101613B
:101F2000002003B0BDE8F08370B50368044653F8A1
:101F3000140F400711D40E46481C29D086BB00BFA1
:101F40001868400527D4FEF76BFC236853F8140F7C
:101F5000400737D518684007F2D5002070BD00BF94
:101F600018684007F9D41868400514D41868400769
:101F7000F3D4186840050ED418684007EDD41868EB
:101F8000400508D4186840074FF0000048BF70BDF6
:101F900018684005E4D56FF480601860042012E0F2
:101FA000154603E053F8140F4007D6D418684005CF
:101FB000F1D4FEF735FC401B2368B042F2D95869D2
:101FC0004007EFD4202000212022216384F83D2007
:101FD00084F83E10226C10432064012084F83C10E9
:101FE00070BD00002DE9F041054600681E4614460C
:101FF00001F47F0201338FB242D0DDF81880B2F5D0
:10200000803F40F0878040693840C01BB0FA80F0C4
:102010004009A04240F0C8804EB924E040693840F1
:10202000C01BB0FA80F04009A04240F0BD80FEF72E
:10203000F7FBA0EB08012868B142EFD941693940AC
:10204000C91BB1FA81F14909A142E7D19BE000BF68
:1020500040693840C01BB0FA80F04009A0424FF000
:10206000000040F0A280FEF7DBFB286841693940A0
:10207000C91BB1FA81F14909A142E9D183E000BF4E
:10208000B2F5803F24D100BF41693940C91BB1FA84
:1020900081F14909A14240F0878041693940C91B5B
:1020A000B1FA81F14909A14240F07E80416939408D
:1020B000C91BB1FA81F14909A14275D14169394081
:1020C000C91BB1FA81F14909A142DDD06CE000BF22
:1020D00081693940C91BB1FA81F14909A14263D133
:1020E00081693940C91BB1FA81F14909A1425BD12B
:1020F00081693940C91BB1FA81F14909A14253D123
:1021000081693940C91BB1FA81F14909A142DFD087
:102110004AE000BF80693840C01BB0FA80F0400937
:10212000A04241D146B923E080693840C01BB0FAD3
:1021300080F04009A04237D1FEF772FBA0EB080106
:102140002868B142F0D981693940C91BB1FA81F1DF
:102150004909A142E8D116E080693840C01BB0FAB5
:1021600080F04009A0424FF0000018BFBDE8F081A8
:10217000FEF756FB286881693940C91BB1FA81F125
:102180004909A142E8D100202021286385F83D10AB
:1021900085F83E00296C41F02001296485F83C0057
:1021A0000120BDE8F08100BF0020BDE8F081000003
:1021B000F0B581B0044600681D4643698FB203EA5A
:1021C0000701B94202D1002001B0F0BD41691646B5
:1021D00001323CD0490512D47EB300BFFEF720FB8C
:1021E000411B2068B14203D941693940B9422BD122
:1021F00041693940B942E6D041694905EED50168E7
:1022000041F4007101606FF480614161042000219C
:102210002022216384F83D2084F83E10226C104374
:10222000206484F83C10012001B0F0BD41693940C0
:10223000B942C8D041694905E1D4FEF7F1FA2068F6
:1022400041693940B942F1D02020E0E741694905B0
:10225000D5D441693940B942B5D041694905CED498
:1022600041693940B942AED041694905C7D4416995
:102270003940B942A7D041694905C0D441693940C4
:10228000B942E3D19FE7000070B5044600681546E7
:1022900050F8143F5A063DD40E4629B926E000BF37
:1022A00050F8141F490635D40168C90621D4FEF739
:1022B000B7FA411B2068B142F2D941694906EFD40F
:1022C00000202021206384F83D1084F83E00206C1B
:1022D00040F0200018E000BFFEF7A2FA206850F896
:1022E000141F4906ECD50168490613D40168C906D4
:1022F000F2D56FF01001016000202021206384F8E6
:102300003D1084F83E00206C2064002084F83C00DE
:10231000012070BD002070BD70B50368044653F8FD
:10232000140F000611D40E46481C29D086BB00BFEE
:102330001868400527D4FEF773FA236853F8140F82
:10234000000637D518680006F2D5002070BD00BF22
:1023500018680006F9D41868400514D418680006F7
:10236000F3D4186840050ED418680006EDD4186838
:10237000400508D4186800064FF0000048BF70BD43
:1023800018684005E4D56FF480601860042012E0FE
:10239000154603E053F8140F0006D6D4186840051C
:1023A000F1D4FEF73DFA401B2368B042F2D95869D8
:1023B0000006EFD4202000212022216384F83D2054
:1023C00084F83E10226C10432064012084F83C10F5
:1023D00070BD000080B582B041F21400C4F202006A
:1023E0000168002241F0010101600068002100F055
:1023F0000100019001981020FFF7ACF81020FFF7C2
:1024000097F8112000210022FFF7A4F8112002B054
:10241000BDE88040FFF78CB883B041F21800C4F2E9
:102420000200016841F020010160016801F0200113
:1024300002910299016841F004010160016801F014
:10244000040101910199016841F0080101600068EF
:1024500000F008000090009803B0704780B540F687
:10246000641045F20041C2F20000C4F2000148F2DB
:10247000A06200234FF4804CC0F2010280E80E00FD
:10248000C0E9033CC0E90533C0E90733FEF7D0F9E2
:10249000002808BF80BDBDE88040FDF73FBF0000B9
:1024A000FEE70000FEE700007047000070470000F4
:1024B000FEF7D6BF70470000FEE7000040F2A40020
:1024C000C2F2000040F22C0142F291620430C2F2EA
:1024D0000001C0F6000200F097BD00002DE9F04FAA
:1024E00083B00C9D002D00F0D08093468A460646AE
:1024F000681E002BA5F10201CDE9011064D0002770
:10250000C4B242F210794FF000080EE04FF001081B
:1025100007EB0A0140F03000C9B2C2B2304600F009
:10252000B9F80137AF4200F0B080F8B2844201D16F
:10253000012027E00199F843C91BC9B2032900EB28
:10254000050101D2012009E001F0FC020023012075
:102550000433DDB2954200FB09F0F9D10C9D11F076
:1025600003010FD0012903D100EB8000400009E0F6
:102570004FF47A72424302294FF0640108BF00FB16
:1025800001F21046BBFBF0F04CF6CD41CCF6CC414D
:10259000A0FB0112D10801EB8101B8F1000FA0EB03
:1025A0004100B5D10299B942B2DD0028AED107EBA6
:1025B0000A00C1B23046302200F06CF84FF000083B
:1025C0000137AF42B1D160E000245FFA80F842F2F7
:1025D000107900270DE000BF012704EB0A0140F04D
:1025E0003000C9B2C2B2304600F054F80134AC42F7
:1025F0004BD0E0B2804501D1012027E00199E043B2
:10260000091BC9B2032900EB050101D2012009E031
:1026100001F0FC02002301200433DDB2954200FBEF
:1026200009F0F9D10C9D11F003010FD0012903D15C
:1026300000EB8000400009E04FF47A724243022927
:102640004FF0640108BF00FB01F21046BBFBF0F045
:102650004CF6CD41CCF6CC41A0FB0112D10801EBE8
:102660008101002FA0EB4100B7D10299A142B4DD56
:102670000028B1D104EB0A00C1B23046202200F09C
:1026800009F800270134AC42B3D103B0BDE8F08FA4
:10269000704700002DE9F04F00EB40004FEA800941
:1026A000A2F12000C0B243F2E60301EB410100EBCE
:1026B0004000C0F6000340F2DC0849005FFA89FAE6
:1026C00003EB800C00234FF0010EC2F200084D46D0
:1026D00045EA010040B21CF903706CB200284FF0CB
:1026E000000048BF01203F2C4FF000024FFA81FB51
:1026F000C8BF0122B7F1FF3F40EA02000CDDB8B9C4
:10270000C4F3C70208EBCB0405F00700A65C0EFA81
:1027100000F026EA00000AE050B9C4F3C70208EB53
:10272000CB0405F00700A65C0EFA00F03043A0547D
:102730006C1CE0B2A0EB0A000C2800F05F8164B2D0
:1027400044EA010040B200284FF00000FFB248BF49
:1027500001203F2C4FF00002C8BF01227E0640EA54
:1027600002000DD4C0B904F00700C4F3C70208EB9F
:10277000CB04A65C0EFA00F026EA00000BE000BFD6
:1027800050B904F00700C4F3C70208EBCB04A65C01
:102790000EFA00F03043A054AC1CE0B2A0EB0A00EB
:1027A0000C2800F02B8164B244EA010040B20028FA
:1027B0004FF0000048BF01203F2C4FF00002C8BF7F
:1027C0000122BE0640EA02000CD4B8B904F00700AA
:1027D000C4F3C70208EBCB04A65C0EFA00F026EAAD
:1027E00000000AE050B904F00700C4F3C70208EB88
:1027F000CB04A65C0EFA00F03043A054EC1CE0B20F
:10280000A0EB0A000C2800F0F98064B244EA010051
:1028100040B200284FF0000048BF01203F2C4FF08D
:102820000002C8BF0122FE0640EA02000CD4B8B97B
:1028300004F00700C4F3C70208EBCB04A65C0EFA51
:1028400000F026EA00000AE050B904F00700C4F3E3
:10285000C70208EBCB04A65C0EFA00F03043A0548C
:102860002C1DE0B2A0EB0A000C2800F0C78064B277
:1028700044EA010040B200284FF0000048BF0120A8
:102880003F2C4FF00002C8BF01223E0740EA020081
:102890000CD4B8B904F00700C4F3C70208EBCB04AA
:1028A000A65C0EFA00F026EA00000AE050B904F037
:1028B0000700C4F3C70208EBCB04A65C0EFA00F0D5
:1028C0003043A0546C1DE0B2A0EB0A000C2800F0CD
:1028D000958064B244EA010040B200284FF0000045
:1028E00048BF01203F2C4FF00002C8BF01227E07E5
:1028F00040EA02000CD4B8B904F00700C4F3C702E0
:1029000008EBCB04A65C0EFA00F026EA00000AE011
:1029100050B904F00700C4F3C70208EBCB04A65C6F
:102920000EFA00F03043A054AC1DE0B2A0EB0A0058
:102930000C2863D064B244EA010040B200284FF092
:10294000000048BF01203F2C4FF00002C8BF012209
:10295000BE0740EA02000DD4C0B904F00700C4F37A
:10296000C70208EBCB04A65C0EFA00F026EA0000D2
:102970000BE000BF50B904F00700C4F3C70208EB36
:10298000CB04A65C0EFA00F03043A054EC1DE0B27C
:10299000A0EB0A000C2831D064B244EA010040B236
:1029A00000284FF0000048BF01203F2C4FF00002EC
:1029B000C8BF0122FE0740EA02000DD1C0B904F0F1
:1029C0000700C4F3C70208EBCB04A65C0EFA00F0C4
:1029D00026EA00000BE000BF50B904F00700C4F382
:1029E000C70208EBCB04A65C0EFA00F03043A054FB
:1029F0000835E8B2A0EB0A000C2801D101314D46A0
:102A000001330C2B08BFBDE8F08F61E6F0B581B053
:102A1000144612789AB10D4606460027F0B2E9B284
:102A2000D2B2FFF737FE0135E8B201371428F8B209
:102A300088BF0025225C88BF0136002AEED101B094
:102A4000F0BD000080B568B1012818BF80BD40F21C
:102A5000DC00C2F200004FF48061FF22FDF7CCFBE6
:102A600080BD00BF40F2DC00C2F200004FF4806184
:102A7000FDF7CAFB80BD000040F2A40CC2F2000CBE
:102A80009CF80100002818BF70472DE9F04140F282
:102A9000DC0E4BF20000C2F2000E40F2DC48C0F245
:102AA0001000AEF180020023C2F20008CCF818003A
:102AB00012F8804F08EB030008F803400EEBC30444
:102AC00094F82010257A017194F82810457041710E
:102AD00092F8381094F83050C17194F84810267C60
:102AE000417294F85010277E857192F8405081729F
:102AF00094F870108670C770057294F8585094F866
:102B0000606094F86870817392F878101033802BAD
:102B1000C57206734773C173CAD14BF20010C0F27D
:102B200010000022CCF81C000EEBC200417808EB2C
:102B30000203447A83F8801090F8211083F88140D2
:102B400090F8294083F8841090F8311083F885407C
:102B500090F8394083F8861090F84110457C467E05
:102B600083F8874090F8494083F8881090F8511016
:102B700083F8825083F8836083F8894090F8594045
:102B800090F8615090F8696083F88A1090F871109D
:102B900090F879001032802A83F88B4083F88C50AB
:102BA00083F88D6083F88E1083F88F00BCD14BF2D0
:102BB0000020C0F210000022CCF820000EEBC20072
:102BC000817808EB0203847A83F8001190F82210D0
:102BD00083F8014190F82A4083F8041190F83210EC
:102BE00083F8054190F83A4083F8061190F84210B6
:102BF000857C867E83F8074190F84A4083F8081167
:102C000090F8521083F8025183F8036183F8094168
:102C100090F85A4090F8625090F86A6083F80A1170
:102C200090F8721090F87A001032802A83F80B41E5
:102C300083F80C5183F80D6183F80E1183F80F01AE
:102C4000BCD14BF20030C0F210000022CCF82400BE
:102C50000EEBC200C17808EB0203C47A83F880113E
:102C600090F8231083F8814190F82B4083F8841169
:102C700090F8331083F8854190F83B4083F8861133
:102C800090F84310C57CC67E83F8874190F84B408E
:102C900083F8881190F8531083F8825183F8836188
:102CA00083F8894190F85B4090F8635090F86B602E
:102CB00083F88A1190F8731090F87B001032802A04
:102CC00083F88B4183F88C5183F88D6183F88E11E2
:102CD00083F88F01BCD14BF20040C0F210000022FB
:102CE0006FF03B03CCF828000EEBC204217908EB0F
:102CF000020080F8001294F82410257B80F804125A
:102D000094F82C1080F8015294F8345080F8051291
:102D10000EEB030180F8065291F8785091F880107C
:102D2000267D277F80F8075294F84C5080F80812CF
:102D300094F8541080F8026280F8037280F8095207
:102D400094F85C5094F8646094F86C7080F80A12FF
:102D500094F8741094F87C401032802A03F18003B8
:102D600080F80B5280F80C6280F80D7280F80E1219
:102D700080F80F42B8D14BF20050C0F21000002290
:102D8000CCF82C000EEBC200417908EB0203447B27
:102D900083F8801290F8251083F8814290F82D4036
:102DA00083F8841290F8351083F8854290F83D40FE
:102DB00083F8861290F84510457D467F83F8874258
:102DC00090F84D4083F8881290F8551083F882529D
:102DD00083F8836283F8894290F85D4090F86550EB
:102DE00090F86D6083F88A1290F8751090F87D0065
:102DF0001032802A83F88B4283F88C5283F88D62DC
:102E000083F88E1283F88F02BCD14BF20060C0F2BF
:102E100010000022CCF830000EEBC200817908EBE4
:102E20000203847B83F8001390F8261083F8014393
:102E300090F82E4083F8041390F8361083F8054379
:102E400090F83E4083F8061390F84610857D867F03
:102E500083F8074390F84E4083F8081390F8561013
:102E600083F8025383F8036383F8094390F85E40C4
:102E700090F8665090F86E6083F80A1390F8761018
:102E800090F87E001032802A83F80B4383F80C53AD
:102E900083F80D6383F80E1383F80F03BCD14BF254
:102EA0000070C0F210000022CCF834000EEBC2001B
:102EB000C17908EB0203C47B83F8801390F82710D4
:102EC00083F8814390F82F4083F8841390F83710EB
:102ED00083F8854390F83F4083F8861390F84710B5
:102EE000C57DC67F83F8874390F84F4083F88813E9
:102EF00090F8571083F8825383F8836383F88943EB
:102F000090F85F4090F8675090F86F6083F88A13EC
:102F100090F8771090F87F001032802A83F88B4366
:102F200083F88C5383F88D6383F88E1383F88F03B3
:102F3000BCD101230CF104000CF1180104228CF81F
:102F40000130BDE8F04100F03FB8000080B582B02C
:102F500040F2A400C2F2000040F208024FF0010C5F
:102F60000430C2F2000200211D23CDF800C0CDF8CC
:102F700004C000F003F802B080BD0000B0B584B01A
:102F80000446DDE908509C460123002808BF1023B1
:102F9000206894F804E0012D0C464FF0640109D13B
:102FA0000092029171462246CDF804C0FEF72EF938
:102FB00004B0B0BD0092029171462246CDF804C023
:102FC000FDF77CFF04B0B0BD82B0054640791446E1
:102FD00002280E4611D0012809D0286829794FF01F
:102FE000640C32462346CDF800C0FDF7D5FC2868B6
:102FF000297932462346FDF7A9FE28682979324609
:103000002346FDF7B7FD00000B6803608988026165
:10301000818040F29801C2F200010B785A1C0A70BC
:1030200001EB83014860704790B0FEF727FA002457
:103030000120CDE90B44CDE9094406900A904FF4F4
:10304000E0104FF4803102250F9006A8CDE9071457
:10305000CDE90D51FEF7ACFB10B1EFF3108072B665
:103060000F20CDE901054FF48060CDE9040401A8EB
:1030700002210394FEF7AAFA10B1EFF3108072B6A2
:10308000FFF7CAF9FFF7A6F9FFF7E8F9C820FDF73F
:10309000ABFAFFF75BFFC820FDF7A6FA0020FFF7A9
:1030A000D1FC07A200200521FFF7B0FC0225022079
:1030B0000C21322200230095FFF710FAFFF7DCFC09
:1030C00073686F7720737472696E67000000000088
:1030D00000000000010203040607080900000000C8
:1030E00001020304010200000000000000000000D3
:1030F0000000000000003F40000000000000000051
:103100003000400030004000000009000BC03D00CE
:103110000BC03D00090018C024407FE022403180F0
:103120000000180024C01B000D8032400180038085
:103130001C4027401C800740004010006000000039
:103140000000000000000000000000001F80204080
:1031500040200000402020401F80000000000900A7
:1031600006001F80060009000000040004003F80E4
:1031700004000400000000100060000000000000D7
:10318000000004000400040004000400000000002B
:1031900000400000000000000000002001C0060008
:1031A0003800400000001F802040204020401F8049
:1031B0000000000010403FC000400000000018C0A8
:1031C000214022402440184000001080204024402C
:1031D00024401B80000002000D0011003FC0014090
:1031E00000003C80244024402440238000001F80B5
:1031F000244024403440038000003000200027C0D9
:103200003800200000001B802440244024401B8004
:1032100000001C0022C0224022401F80000000004D
:1032200000000840000000000000000000000460F2
:10323000000000000000000004000A0011002080CF
:1032400040400900090009000900090000000000D1
:103250004040208011000A00040018002000234094
:103260002400180000001F802040274029401F40F4
:103270000000004007C039000F0001C0004020409E
:103280003FC0244024401B8000001F80204020407D
:1032900020403080000020403FC0204020401F8060
:1032A000000020403FC024402E4030C0000020409D
:1032B0003FC024402E00300000000F00108020404E
:1032C00022403380020020403FC0040004003FC081
:1032D0002040204020403FC02040204000000060AF
:1032E000202020203FC02000200020403FC024405C
:1032F0000B0030C0204020403FC020400040004034
:1033000000C03FC03C0003C03C003FC00000204064
:103310003FC00C4023003FC020001F8020402040C1
:1033200020401F80000020403FC02440240018009F
:1033300000001F802140214020E01FA0000020400D
:103340003FC02440260019C0004018C0244024403B
:10335000224031800000300020403FC0204030003B
:10336000000020003F80004000403F8020002000FF
:103370003E0001C0070038002000380007C03C00B4
:1033800007C038000000204039C0060039C0204086
:1033900000002000384007C03840200000003040C6
:1033A00021C02640384020C00000000000007FE01F
:1033B000402040200000000070000C00038000400E
:1033C00000000000402040207FE0000000000000DE
:1033D000200040002000000000000010001000103D
:1033E000001000100010000000004000000000006D
:1033F0000000000002800540054003C0004020009E
:103400003FC00440044003800000000003800440EB
:1034100004400640000000000380044024403FC0F8
:10342000004000000380054005400340000000000C
:1034300004401FC0244024402000000002E005504A
:1034400005500650042020403FC00440040003C043
:1034500000400000044027C00040000000000010B1
:103460000010041027E00000000020403FC0014091
:10347000070004C00440204020403FC000400040FE
:10348000000007C0040007C0040003C0000004409F
:1034900007C00440040003C0004000000380044053
:1034A000044003800000041007F00450044003802F
:1034B0000000000003800440045007F000100440A6
:1034C00007C0024004000400000000000640054060
:1034D000054004C00000000004001F8004400040BC
:1034E0000000040007800040044007C000400400C2
:1034F000070004C0018006000400060001C00700A8
:1035000001C006000000044006C0010006C00440DF
:1035100000000410071004E0018006000400000011
:10352000044005C006400440000000000000040004
:103530007BE040200000000000000000FFF00000E1
:103540000000000040207BE004000000000040007C
:103550008000400020002000400002030405060710
:1035600008090A0B0C0D0E0F101000009035000812
:10357000000000203800000050010008C835000895
:1035800038000020880F00007001000831EFFFFFB5
:103590000100000010000000AE001040B081FFA14B
:1035A000A6A83FC8D300D580D805D9F1DA12DB3000
:1035B0008D14AF200000000000127A006409002082
:0835C000780200000000000089
:04000005080000ED02
:00000001FF
